S00E00007465737430322E73726563F4
S3150800000020040020DD200008BB200008BD200008D1
S31508000010BF200008C1200008C32000080000000017
S31508000020000000000000000000000000C5200008D5
S31508000030C720000800000000C9200008CB200008DF
S315080000401D21000821210008252100082921000872
S315080000502D21000831210008352100083921000822
S315080000603D210008412100084521000849210008D2
S315080000704D21000851210008552100085921000882
S315080000805D21000861210008652100086921000832
S315080000906D210008712100087521000879210008E2
S315080000A07D21000881210008852100088921000892
S315080000B08D21000891210008952100089921000842
S315080000C09D210008A1210008A5210008A9210008F2
S315080000D0AD210008B1210008B5210008B9210008A2
S315080000E0BD210008C1210008C5210008C921000852
S315080000F0CD210008D1210008D5210008D921000802
S31508000100DD210008E1210008E5210008E9210008B1
S31508000110ED210008F1210008F5210008F921000861
S31508000120FD2100080122000805220008092200080E
S315080001300D220008112200081522000819220008BD
S315080001401D2200082122000825220008292200086D
S315080001502D2200083122000835220008392200081D
S315080001603D220008412200084522000849220008CD
S315080001704D2200085122000855220008592200087D
S315080001805D220008612200082DE9F04FA1B08046E3
S3150800019017461D46029102AE0020706211AC6FF040
S315080001A000490AE017F8011B0298C0470290002888
S315080001B000F07C82706A401C7062387808B9706AF0
S315080001C076E22528EED10020F06030617061B061DA
S315080001D0F061306201E040F0010017F8011F2029A4
S315080001E0F9D023290ED02B2904D02D2906D0302961
S315080001F00CD00FE040F0020080B2EEE740F00400B9
S3150800020080B2EAE740F0080080B2E6E740F0100066
S3150800021080B2E2E72A290DD129680A1D2A600968F1
S31508000220F162002904D54942F16240F0040080B227
S315080002307F1C11E00021F16209E0F16A494505D009
S3150800024001EB810302EB43013039F1627F1C3A78F6
S31508000250A2F130010A29F0D339782E291CBF4FF0B4
S31508000260FF31B1621CD117F8011F2A2906D1296866
S315080002700A1D2A600968B1627F1C11E00021B1627B
S3150800028009E0B16A494505D001EB810302EB430158
S315080002903039B1627F1C3A78A2F130010A29F0D3CD
S315080002A0308639780FF6E43000F014FE08B117F8F6
S315080002B0010B8DF83A009DF83A00682804D1387881
S315080002C068280AD1622005E06C2804BF38786C28B3
S315080002D003D171208DF83A007F1C11A8B0603A78D6
S315080002E01046253825D01C3875D0001F022872D92B
S315080002F0133800F09C8009386DD0801E00F03781D5
S31508000300401E00F0DD80401E022864D9001F00F060
S31508000310D780401F34D0401E00F08980401E24D06C
S31508000320C01E0CD0801E00F08280C01E00F07F80A8
S3150800033026E1F068411CF160252101552AE128686B
S31508000340011D296000687060B26A002A03D500F0B2
S31508000350DDFD30611EE1002100F0F4FD00281ABF22
S315080003607168401AB06A306114E12868011D296075
S3150800037000680021CDE9000111A870607821F2E03B
S315080003809DF83A00622818D0682806D06A280BD04B
S315080003906C2819D0712807D016E02868011D296035
S315080003A0716A00680180F5E02A68101D2860706A85
S315080003B0C1171268C2E90001ECE02868011D29602E
S315080003C0716A00680170E5E02868011D2960716A94
S315080003D000680160DEE02868C01D20F0070028607C
S315080003E0034603F108002860D3E90001CDE90001BE
S315080003F0002904D5F068411CF1602D210DE0308EEE
S31508000400810704D5F068411CF1602B2105E0C0077F
S3150800041004D5F068411CF16020210155F06811A946
S3150800042040187060114600A800F0D8F9B2E09DF8AF
S315080004303A306C2B08BF286811D0712B08BF286882
S3150800044002D06A2B28680AD1C01D20F00700286050
S3150800045084460CF108002860DCE9000103E0011D70
S31508000460296000680021CDE90001682B04BFDDE999
S31508000470000180B20BD0622B04BFDDE90001C0B2D7
S3150800048005D0742B18BF7A2B04D1DDE900010021B1
S31508000490CDE9000196F8300000075FD5DDE90001D7
S315080004A0002908BF002859D042F02000782855D1E5
S315080004B0F06830210155401C411CF16002554DE0A1
S315080004C09DF83A0062280CD0682810D06A281AD0FD
S315080004D06C2824D0712816D0742820D07A280CD0FD
S315080004E01DE02868011D296090F900001BE02868B6
S315080004F0011D2960B0F9000015E02868011D296072
S315080005000068002110E02868C01D20F00700286058
S31508000510034603F108002860D3E9000104E02868CF
S31508000520011D29600068C117CDE90001DDE9000158
S31508000530002904DAF068411CF1602D210DE0308EA7
S31508000540810704D5F068411CF1602B2105E0C0073E
S3150800055004D5F068411CF16020210155F06811A905
S3150800056040187060114600A800F0A5F812E0F0687F
S31508000570411CF16029680A1D2A600968015509E0CD
S31508000580F068411CF160252101551AB1F068411C3B
S31508000590F16002557F1CF06AF168401AB169401A89
S315080005A03169401AF169401A7169401A316AA0EB3B
S315080005B0010A96F83000400711D420208DF8400033
S315080005C0BAF1010F0BDBD346012310AA00A9404656
S315080005D000F044FC002869D1BBF1010BF4D1F368A3
S315080005E011AA00A9404600F039FC00285ED1302047
S315080005F08DF84000D6F818B0BBF1010F0ADB0123CD
S3150800060010AA00A9404600F029FC00284ED1BBF1EB
S31508000610010BF4D13369726800A9404600F01EFC4C
S31508000620002843D130208DF84000D6F81CB0BBF125
S31508000630010F09DB012310AA00A9404600F00EFCB1
S31508000640A0BBBBF1010BF5D173693069716842181B
S3150800065000A9404600F002FC40BB30208DF840005F
S31508000660D6F820B0BBF1010F09DB012310AA00A9B7
S31508000670404600F0F3FBC8B9BBF1010BF5D196F87B
S31508000680300040077FF599AD20208DF84000BAF17B
S31508000690010FFFF692AD012310AA00A9404600F00B
S315080006A0DDFB18B9BAF1010AF5D186E54FF0FF303E
S315080006B021B0BDE8F08F2DE9FA4B86B005462F69C3
S315080006C06F2908BF082605D041F02000782814BFF6
S315080006D00A2610263C24D5E9000181468B469DF85A
S315080006E01820642A18BF692A05D1002903DAD9F126
S315080006F000096BEB4B0BBBF1000F08BFB9F1000FFC
S315080007000CD1286B50B9082E44D195F8380000074B
S3150800071040D53B24302087F83B003BE0A4F1010894
S315080007204446F017CDE9046048465946DDE90423F6
S3150800073000F034FCCDE90201CDE9009BDDE9022396
S31508000740DDE90401A0FB029BDDE90001A0EB09003D
S315080007503030C0B23A2803D39DF81810513908181A
S3150800076008F80700DDE9029BBBF1000F08BFB9F1E5
S31508000770000F03D0E868E1198842CFD3082E09D1C3
S3150800078095F83800000705D5E05D302802D0641ECC
S315080007903020E055C4F13C00A861E119E960296BF5
S315080007A0884207DA081A2862288F4FF6EF71084040
S315080007B0288710E000290ED595F8381001F01401A5
S315080007C0102908D1696B6A69891A2A6A891A0C1A62
S315080007D0012CA8BF2C6208B0BDE8F08B2DE9F24FBA
S315080007E08EB0054604AFD5E90001CDE902019DF8B2
S315080007F0380040F020008DF8000061280BD0286BE7
S31508000800002848BF062005D404BF9DF800006728C5
S3150800081001D1012028636968C1F30A5040F2FF73C9
S3150800082098421CD1080304BF2868002809D1032070
S31508000830A8619DF8380061381A2837D30FF260612D
S3150800084008E00320A8619DF8380061381A282AD3E1
S315080008500FF244610322E86800F018FCBBE10100CE
S3150800086017D1284600F04DFC012812DB0024002091
S315080008709DF80010612920D1E968302201F8012B82
S315080008804A1CEA609DF83820612A0CBF7822582253
S315080008900FE040F2FE316A6861F31E526A60441A3C
S315080008A04FF0FF30E4E70FF2EC51D3E70FF2EC51CB
S315080008B0D0E70A706969891C696110B90026B046D3
S315080008C07FE19DF80000612840F09780286B00289A
S315080008D04CBF2126461C36B2771CD5E900ABDDE9AC
S315080008E002010022002300F02FFC3ABF8BF00040E3
S315080008F0CDE902A0CDE902ABA4F104088DF81020D9
S315080009000DF11109012F33DBDDE902010022002375
S3150800091000F032FC2CD21C2102A800F045FCDDE9CF
S31508000920020100F0D5FC0446FF1F012F09DB00F089
S31508000930FBFC02460B46DDE9020100F00DFDCDE9A0
S31508000940020109F20700072104E004F00F0200F88B
S31508000950012D2411012C01DB491EF6D5491E5CBF69
S31508000960002200F8012DF9D500F20709012FCBDA8C
S315080009700DF11100A9EB00010DF11107B142B8BF45
S315080009800E4636B2002E31D43046884206DA04A91D
S3150800099041184978082928BF0F2100D2002104AA46
S315080009A0821800E0761E401E12F801398B42F9D0F3
S315080009B00F2904D104A941184A78521C4A70002804
S315080009C003D504AF761C08F1040836B2701E0DD4A0
S315080009D0C1190A783032D2B23A2A03D39DF8383090
S315080009E03A3B9A1801F80129401EF2D5286B0028CF
S315080009F040F1E780701E2863E3E0DDE9020100228A
S31508000A00002300F0A1FB05D2DDE9020181F00041D7
S31508000A10CDE9020124B247F2975060436F4990FB33
S31508000A20F1F80FFA88F8C8F107040027DFF8B09143
S31508000A30012C19DBDDE902ABE00707D5504659461C
S31508000A403A464B4600F048FD82468B4664103846C7
S31508000A5049463A464B4600F03FFD07468946002C74
S31508000A60EAD1CDE902AB21E064429246DFF874B1DF
S31508000A7014D0E00707D5504659463A464B4600F08B
S31508000A802BFD82468B466410384649463A464B4605
S31508000A9000F022FD07468946002CEAD1DDE902016D
S31508000AA052465B4600F0EAFDCDE902019DF80000DA
S31508000AB066280CBF08F10A000620296B4618142E72
S31508000AC0A8BF132630208DF810000DF11104464FEB
S31508000AD0012E33DBDDE9020100F010FC04F1080108
S31508000AE004220A24B0FBF4F303EB830EA0EB4E00BA
S31508000AF0303001F8010DB3FBF4F000EB8004A3EBF2
S31508000B004403303301F8013D521EEAD101F10804CD
S31508000B10083E012EDCDBDDE9020100F0EFFB00F008
S31508000B200DFC02460B46DDE9020100F015FC002229
S31508000B303B4600F0D1FCCDE90201CBE70DF11100EF
S31508000B40201A0DF111079DF81110302906D1401E03
S31508000B50A8F1010817F8011F3029F8D09DF80010F0
S31508000B60662904BF0FFA88F808F1010103D0652940
S31508000B700CBF012100212A6B8E1836B2B042B8BFCD
S31508000B80064636B2002E1CD43146814204DAC85DC8
S31508000B90352828BF392000D23020CA19521E00E055
S31508000BA0761E491E12F801398342F9D0392802D136
S31508000BB0C85D401CC855002903D57F1E761C08F160
S31508000BC001080FFA88F0009033B23A469DF83810BB
S31508000BD0284600F00BF80FB0BDE8F08FA08601009C
S31508000BE0000024400000F03F84D797412DE9F043E8
S31508000BF085B00546894617461E46BDF93040D5F8E4
S31508000C003080012E02DA01260FF2982749F02000DB
S31508000C1066280AD0672840F086806FF003018C4268
S31508000C20C0F28780444580F28480641C66280CD014
S31508000C3095F83800000702D44645B8BFB04624B236
S31508000C40B8EB040848BF4FF00008E868A96924B261
S31508000C50012C25DA4A1C30230B54B8F1010F03DAAC
S31508000C6095F83810090702D52E211154521CAA618D
S31508000C7018EB040FB8BFC8F1000424B261426962D8
S31508000C80A044B045B8BF464636B2EE61324639464C
S31508000C90AB69181800F0FAF9A8EB0600A862C6E0D6
S31508000CA00818A64218DA3246394600F0EFF9A9695B
S31508000CB07118A961A01B6862B8F1010F03DA95F8EB
S31508000CC03800000705D5E8682E220A54E869401C52
S31508000CD0E861C5F82880AAE02246394600F0D6F928
S31508000CE0A8692018A861361BB8F1010F03DA95F830
S31508000CF03810090704D5411CA961E9682E22425417
S31508000D0036B2B045B8BF464636B23246E119A8698A
S31508000D10EB68C01800F0BAF9A8693018A861A8EB02
S31508000D200600686283E0B9F1610F16D14FF07009C9
S31508000D3018E0464504DA95F83810090758BFB04652
S31508000D40B8F1010848BF4FF00008B9F1670F14BFA2
S31508000D504FF045094FF0650904E0B9F1410F08BFA6
S31508000D604FF05009A9694A1CE86817F8013B0B546B
S31508000D70B8F1010F03DA95F83810090702D52E21C4
S31508000D801154521CAA61B8F1010F11DB761E36B256
S31508000D90B045B8BF464636B232463946AB6918182A
S31508000DA000F074F9A8693018A861A8EB0600686213
S31508000DB0A869E968471807F8019B002C5CBF2B2037
S31508000DC007F8010B03D52D2007F8010B644200260E
S31508000DD00DF1080824B2012C0EDB0A22214600A8D0
S31508000DE000F06FFD019808F8010B009C761C24B2F0
S31508000DF0012CF2DA022E06DA49F02000652804BF33
S31508000E00302007F8010B1EB9302007F8010B09E05E
S31508000E10012E07DB761E02A8305C303007F8010B7E
S31508000E20012EF7DAA869E9684018381AE86195F8D2
S31508000E30380000F0140010280DD16869A96908184F
S31508000E40696A0818E9690818A96A0818696B88425E
S31508000E50BCBF081A286205B0BDE8F083F8B5044699
S31508000E600D4616461F46002077B116F8011BA868DE
S31508000E70A047A86030B1E86A401CE86200207F1EDF
S31508000E80F3D1F2BD4FF0FF30F2BD0000686A6C7412
S31508000E907A4C00006E616E004E414E00696E660027
S31508000EA0494E4600300010B450F8041B81B1026860
S31508000EB01218001D50F8043BDC0744BFA9F10104D1
S31508000EC0E31852F8044B43F8044B091FF9D1EBE732
S31508000ED010BC70470278C9B28A421AB11CBF10F812
S31508000EE0012FF9E718BF0020704750F8041B61B1BD
S31508000EF050F8042BD30744BFA9F101039A1800231D
S31508000F0042F8043B091FFAD1EFE7704700F10103E5
S31508000F10810704D010F8011B89B18107FAD102684C
S31508000F20B2F10131914311F0803F04BF50F8042F0C
S31508000F30F6E710F8011B11B110F8011BFBE7C01A00
S31508000F4070470000C9B2830706D0521E22D310F894
S31508000F50013B9942F7D11FE0083A13D302F1040284
S31508000F6041EA012141EA014150F8043B121F21BF21
S31508000F704B40A3F1013C2CEA030C1CF0803FF3D054
S31508000F80C9B2001F083210F8013B521E28BF91EA69
S31508000F90030FF8D818BF0120401E70471B4213D113
S31508000FA0094236D12AB18446B0FBF2F002FB10C2E0
S31508000FB0704700F08DBCFCD30022002370470B005D
S31508000FC00200002100207047904271EB030CF6D313
S31508000FD070B5B1FA81F4B3FA83F52C1BA340C4F1BA
S31508000FE0200532FA05F63343A2405FF00046E64094
S31508000FF002E05B085FEA3202841A71EB030524BF3C
S31508001000204629467641F4D302000B003000002121
S3150800101070BD012ACFD970B5140C20D0B1FA81F46D
S31508001020B2FA82F5C4F120046419B4F12006D6D3C5
S31508001030B2405FF00044F440002502E052085FEA3F
S315080010403303C61A71EB020E24BF3046714664415B
S315080010506D41F3D302000B002000290070BD0C4639
S31508001060B1FBF2F102FB11452D0445EA1045B5FB2B
S31508001070F2F402FB145580B240EA0545B5FBF2F0DE
S3150800108002FB105240EA044070BD000062B38B07B1
S3150800109008D0521E11F8013B00F8013B00F02480ED
S315080010A08B07F6D1830740F0208000BF103A07D39C
S315080010B030B4B1E83810103AA0E83810F9D230BC8C
S315080010C0530724BFB1E80810A0E8081044BF51F838
S315080010D0043B40F8043BD20724BF31F8022B20F822
S315080010E0022B44BF0B7803707047083A07D3B1E860
S315080010F00810083A40F8043B40F804CBF7D25307E7
S31508001100E4E730B44168436801F0004201211B035B
S315080011101B0B436004BF0368002B0ED003684468AA
S31508001120DD0F45EA440444605B000360491EE302A0
S31508001130F4D543681B031B0B436043681A4342609C
S3150800114030BC0846704700004FF4001C1CEB410FEA
S3150800115094BF1CEB430F09E041EA030C50EA4C0C20
S3150800116052EA0C0C03D2994208BF9042704714BF4A
S315080011708B428242704700004FF4001C1CEB410F63
S3150800118094BF1CEB430F09E041EA030C50EA4C0CF0
S3150800119052EA0C0C03D28B4208BF8242704714BF36
S315080011A0994290427047000070B50446606840F264
S315080011B0FF72C0F30A500D46904207D160680003DB
S315080011C004BF206800281AD0022070BD010004D18F
S315080011D02046FFF796FF012869DA012D11DB40F258
S315080011E0FF71091A8D420CD3606800284CBF9FED29
S315080011F0310B9FED320B51EC100BC4E900010120B5
S3150800120070BD4142A942616806DA2E4A401911406A
S3150800121041EA0050606057E06268401E1203120BF4
S31508001220451942F4801205F1350001F0004162606B
S31508001230352803D361600020206070BD002215F1B7
S315080012401F0F05DA6068226820600020203560607C
S31508001250684213D0521E25689241C0F12003D2433A
S315080012609D4055EAD27225686668C54006FA03F3BA
S315080012702B432360636823FA00F0606060680843C4
S315080012806060B2F1004F03D80BD12078C00708D5AB
S315080012902068401C2060206818B96068401C60609F
S315080012A012E06068884204BF20680028F8D1002050
S315080012B070BD0000000000000000F0FF0000000004
S315080012C00000F07FFFFF0F804FF0FF3070BD000079
S315080012D0F446400D40EAC120490006D200F014F851
S315080012E0004248BF6FF00040604700F00DF84FF02D
S315080012F0004188428CBF084640426047400D40EA9C
S31508001300C120490080F00D8040F00040490DA1F54C
S315080013108061491C05D4D1F11F0154BFC840C017CC
S3150800132070474FF000007047010040F10980F4460D
S31508001330404200F005F851F000416047010000BF47
S3150800134009D0B0FA80F18840C91CC1F58461090545
S3150800135001EBD0214005704770B44FF0004591EA83
S31508001360030F44BF6B4000F0B5BA00BF841A71EB97
S31508001370030604D26E40001BB141121973414FF4A3
S31508001380001C1CEB410F34BF7CEB430684E00C0DBC
S31508001390A4EB1356362E7DDC012E43DC45EAC32327
S315080013A043EA525312BFD20292025B08240545EA69
S315080013B0C12141EA5051D2EBC020994125D407D129
S315080013C0B0FA80F610FA06F164D00020203608E05C
S315080013D0B1FA81F6B140C6F1200220FA02F21143B1
S315080013E0B0404FEAF474B4EB465434F001064FEAC1
S315080013F074040AD8D6F50016760D04F00044F040B9
S3150800140061FA06F25040F1404840C00A40EA4150AD
S3150800141021F0004128BF5FEA500550F1000044EB77
S31508001420D12137E045EAC323DB0A45EAC121C90AC7
S31508001430B6F120050EDD42EA0242120CC5F120067D
S3150800144003FA06F6EB4042EA06056D42984161F159
S3150800145000010DE062FA06F5F240554063FA06FC13
S3150800146082EA0C02F3405A406D42904161EB030157
S3150800147011F4801F05D1641E620502D06D0040413B
S31508001480494121F48011430875F1004350F10000E9
S3150800149041EB045170BC70471CEB410F15D223F089
S315080014A0004352EA43060BD04FEA4C0CBCEB410F03
S315080014B004D80C0D661E342EB7DDEBE7801A994169
S315080014C050EA410608BF0021E4E708BF1CEB430FBA
S315080014D028BF6FF00001DDE7B0B581EA030C0CF018
S315080014E0004C40F2FF7515EA11541DBF15EA135753
S315080014F0AC42AF4239E0E41923EA455343F480137A
S31508001500C90241F0004141EA505EC7021100A7FB3B
S31508001510020200284FF00000EEFB01204FF0000108
S31508001520E3FB072118BF42F0010240180021494198
S31508001530E3FB0E01A4F580640F0302D2520040417A
S31508001540494154F101046CDD470872F1004250F13B
S31508001550000051EB0451A1F580115CBF41EA0C0172
S31508001560B0BD4CEA05510020B0BD05EA1357AC42A0
S3150800157014BFAF4241E050EA410E1CBF52EA430E87
S3150800158002E061460020B0BD24423C441BD15FEA1C
S31508001590070EF6D0090302BF01460020AEF1140E6D
S315080015A0B1FA81F7AEEB070401FA07FE0C37C7F16B
S315080015B0200100FA07F7C8404EEA000E23EA455311
S315080015C043F48013A2E733F00043B3FA83F704BF6A
S315080015D0B2FA82FE77440B3FE41BB7F1200E2FBF09
S315080015E002FA0EF3BB40C7F1200E22FA0EFE38BFF0
S315080015F043EA0E03BA40641C82E750EA410E14BF60
S3150800160052EA430E6FF000014FF4001717EB430F31
S315080016108ABF194617EB410FB5E74CEA055100207A
S31508001620B0BDD4F10104B4F120070FDAC4F12007E4
S31508001630520828BF42F0010210FA07F501FA07F727
S31508001640E1BF2A43E0403843E1400FE0352C98DCFF
S31508001650C7F1200452EA400220FA07F218BF42F006
S31508001660010231FA07F0A1400A43002172F1004253
S3150800167050F1000051EB0C01B0BD0000F0B540F28E
S31508001680FF7581EA030C0CF0004C15EA11541DBFD6
S3150800169015EA1357AC42AF42E5E0BC41C1F313016A
S315080016A0C3F31303801A994143F4801304D2641ECA
S315080016B04000494180185941C90241EA5051B1FBDD
S315080016C0F3F603FB1611A2FB0675D7EBC020A9415A
S315080016D002D2761E80185941C90241EA5051B1FB1F
S315080016E0F3FE03FB1E11A2FB0E75D7EBC020A94122
S315080016F003D2AEF1010E80185941890241EA905190
S31508001700760546EA8E2EB1FBF3F603FB1611A2FB0D
S315080017100675D7EB8020A94102D2761E801859415A
S31508001720C90241EA50514EEA060EB1FBF3F603FB35
S315080017301611A2FB0675D7EBC020A94102D2761E68
S3150800174080185941C90241EA5051B1FBF3F703FB2E
S315080017501711A2FB0735D3EBC020A94167F1000793
S315080017600CBF004247F0010766F3D5274FEA1E3142
S31508001770B80814F5806412DDBD0775F1004250EB18
S315080017800E5051EB045111F5801F5CBF41EA0C0164
S31508001790F0BD4CF07F6141F0E0410020F0BDBD078F
S315080017A06D0840EA0E5041F48011D4F10104B4F1F9
S315080017B020060ADAC4F120060200E04001FA06F320
S315080017C0E1401843B24015430EE0342C13DCC6F151
S315080017D0200445EA40056D0820FA06F2154321FA69
S315080017E006F0A1400D43002175F1004250F10000BA
S315080017F051EB0C01F0BD00205FEA0C01F0BDCFB93A
S3150800180092185B41B3FA83F704BFB2FA82F6BF199E
S315080018100B3FB7F120062FBF02FA06F3BB40C7F10C
S31508001820200622FA06F638BF3343BA401CB1E4193B
S31508001830641E33E77F4231F00041B1FA81F404BFF8
S31508001840B0FA80F6A4190B3CB4F120062FBF00FAB3
S3150800185006F1A140C4F1200620FA06F638BF314346
S31508001860A0403C1B1AE7AC421ABF05EA1357AF4221
S3150800187012E050EA41061CBF52EA4306BFE750EAA7
S315080018804107304661461CBF41EA0551F0BD52EAA0
S31508001890430C08BFC143F0BD00204FF4001616EBF9
S315080018A0410F98BF16EB430F08BF16EB410F24BF35
S315080018B0C14305E016EB430F0CBF61464CEA0551E0
S315080018C0F0BD91FBF2F303FB1211C0E9003170473A
S315080018D070470000841A71EB030603D2001BB1415E
S315080018E0121973414FF4001C1CEB410F34BF7CEBFB
S315080018F0430443E00C0DA4EB1356352E50DC45EAA1
S31508001900C323DB0A45EAC121C912B6F120050DDD5C
S3150800191063FA05F6EB4086EA0305124218BF45F05E
S315080019200105C01851F100010CD213E062FA06F560
S31508001930F2405540F3415A40B340F3405A408018AC
S31508001940594107D349085FEA30005FEA350528BFE1
S3150800195045F0010501F58011420875F1004250F184
S31508001960000041EB045170BC4FF4001C1CEB410F06
S3150800197038BF70470020090D090570471CEB410F59
S3150800198010D252EA43060BD0BCEB410F05D80C0D1A
S31508001990AB43661E342EB5DD02E0AB4380185941D1
S315080019A070BC704770BC704780B54548006850F0F9
S315080019B00100434908604348002101604048006827
S315080019C0414908403E4908604048414901603C4851
S315080019D0006830F480203A4908603E4800210160DA
S315080019E000F005F83C485FF00061016001BD82B077
S315080019F000200190002000903148006850F48030A3
S31508001A002F4908602E48006810F4003000900198AD
S31508001A10401C01900098002803D10198B0F5A06FEA
S31508001A20F0D127480068800302D50120009001E024
S31508001A3000200090009801283ED12848006850F000
S31508001A408050264908602648006850F4804024499A
S31508001A5008601C481B49096801601A48006850F468
S31508001A600040184908601748006850F4A050154906
S31508001A70086016481B4901601148006850F08070DC
S31508001A800F4908600E4800688001FBD5164840F2E9
S31508001A90056101600B4800688008800009490860F4
S31508001AA00848006850F002000649086005480068C2
S31508001AB010F00C000828F9D102B0704700000000A9
S31508001AC00038024008380240FFFFF6FE043802409C
S31508001AD0103000240C38024008ED00E0403802407F
S31508001AE00070004008544007003C0240F0B4002152
S31508001AF000220023022400250226DFF814713F681D
S31508001B0017F00C073900002904D0042906D0082943
S31508001B1008D035E0DFF80011016034E0DFF8FC108A
S31508001B20016030E0DFF8EC100968C1F38055DFF892
S31508001B30E410096811F03F06002D0BD0DFF8DC1021
S31508001B40B1FBF6F1DFF8CC201268C2F3881202FB6B
S31508001B5001F30AE0DFF8C010B1FBF6F1DFF8B420B4
S31508001B601268C2F3881202FB01F3DFF8A8100968AD
S31508001B70C1F30141491C4C00B3FBF4F1016002E0DA
S31508001B80DFF894100160DFF88810096811F0F00199
S31508001B900909DFF88C208A5C0168D14041601C493C
S31508001BA0096811F4E051890ADFF874208A5C4168F3
S31508001BB0D14081601649096811F46041490BDFF884
S31508001BC060208A5C4168D140C160F0BC7047C9B2E8
S31508001BD0002905D01349096808431249086005E039
S31508001BE01049096831EA00000E4908607047C9B211
S31508001BF0002905D00C49096808430B49086005E027
S31508001C000949096831EA0000074908607047000079
S31508001C1008380240043802400024F40000127A0012
S31508001C2000000020303802404438024000B585B034
S31508001C305FF4E13000900020ADF804000020ADF814
S31508001C4006000020ADF808000020ADF80C000C20B6
S31508001C50ADF80A0000A92E4800F06EF801212C48BC
S31508001C6000F0CCF805B000BD80B5FFF79DFE012158
S31508001C701020FFF7BCFF01BD80B501210820FFF742
S31508001C80A6FF24484FF470410160224801210171E2
S31508001C902048002181711F48032141711D480021F8
S31508001CA0C1711C491C4800F0B7F8FFF7BFFFFFF7E2
S31508001CB0DBFF4FF48051184800F001F9174800F08F
S31508001CC033F84FF40051144800F0F9F8134800F0BF
S31508001CD02BF84FF48041104800F0F1F80F4800F057
S31508001CE023F84FF400410C4800F0E9F80C4800F0DE
S31508001CF01BF84FF47041084800F0E3F87FF07F4086
S31508001D0000F012F8074800F0DFF8D2E700000000FC
S31508001D100010014018000020000C0240FFFF3F00A1
S31508001D20FFFF7F00CC20000801B40098411E0091F7
S31508001D300028FAD101B070477FB504000D000020D5
S31508001D40002100220023AE89002E208A30F440505C
S31508001D50E98808432082A08927490840A9882A8952
S31508001D6011436A8911430843A081A08A30F4407060
S31508001D70A9890843A08200A8FFF7B8FE1C48844238
S31508001D8002D01C48844201D1039900E00299A08937
S31508001D90000407D5192000FB01F029684900B0FBAB
S31508001DA0F1F206E0192000FB01F029688900B0FB72
S31508001DB0F1F26420B2FBF0F000010109642303FB91
S31508001DC01123A189090408D5D90032316422B1FB4F
S31508001DD0F2F111F00701084307E0190132316422D4
S31508001DE0B1FBF2F111F00F01084320817FBD00001D
S31508001DF00010014000140140F3E9FFFFC9B20029B1
S31508001E0004D0818951F40051818104E081894DF61D
S31508001E10FF7211408181704730B4002200230024EC
S31508001E2000252A0047E0012393400C681C409C4289
S31508001E3040D1036803241500EDB26D00AC40A343FE
S31508001E40036003680C791500EDB26D00AC402343BE
S31508001E5003600B79012B02D00B79022B1AD1836808
S31508001E6003241500EDB26D00AC40A343836083687C
S31508001E704C791500EDB26D00AC402343836043688E
S31508001E8001249440A343436043688C799440A4B2E8
S31508001E9023434360C36803241500EDB26D00AC40CC
S31508001EA0A343C360C368CC791500EDB26D00AC409E
S31508001EB02343C360521C102AB5D330BC7047018334
S31508001EC070474183704700000EB400B582B003A97D
S31508001ED0009100AB02460121034878440A30FEF718
S31508001EE053F906BC5DF810FBBD01000080B500F093
S31508001EF033F802000023DB431068984204D011002F
S31508001F000220ABBE002010605068984204D0111D14
S31508001F100220ABBE0020506001BD000010B584B0A1
S31508001F20040000F019F8A100421810680021C943FE
S31508001F3088420DD107A00090002C01D1002000E0B6
S31508001F40042001900320029069460120ABBE106070
S31508001F5004B010BD3A7474000048704710000020A1
S31508001F6010B5084979441C31074C7C441A34A142FF
S31508001F7006D0081D0A68511888470146A142F8D1BB
S31508001F8010BD00BFA0000000C000000010B582B060
S31508001F90044614F1010F0AD08DF80000012200A9A9
S31508001FA0012000F007F8012801D1204616BD4FF0A0
S31508001FB0FF3016BD80B5002802D400F003F802BD34
S31508001FC0002002BD80B5002901D1002002BD0128EC
S31508001FD001D0022802D100F004F802BD00F011F881
S31508001FE002BD30B583B00C0015000120FFF796FF3F
S31508001FF000900194029569460520ABBE281A03B0E5
S3150800200030BD10B584B013000090019102930122EF
S31508002010040069460520ABBE181A2100C046C04612
S3150800202004B010BDC7EEFFFF08000000180000202E
S315080020300000000073EEFFFF1800000028020000F1
S3150800204000000020000000004EF68851CEF2000184
S31508002050086840F4700008604FF00070E1EE100A5E
S315080020607047000000F009F8002801D0FFF778FF54
S315080020700020FFF701FE00F002F80120704700F08B
S3150800208001B800000746384600F002F8FBE70000F2
S3150800209080B5FFF72BFF024A11001820ABBEFBE7FD
S315080020A02600020038B504460D462846FFF76EFF9F
S315080020B0A84218BF0024204632BD7047FEE7FEE757
S315080020C0FEE7FEE7704770477047704748656C6CD7
S315080020D06F20576F726C640D0A0000000148804734
S315080020E001480047A9190008ED200008C046C04667
S315080020F0FFF7AAFFFFF7B6FFFFF7DFBFFFF7DEBF61
S31508002100FFF7DDBFFFF7DCBFFFF7DBBFFFF7DABF7F
S31508002110FFF7D9BFFFF7D8BFFFF7D7BFFFF7FEBF57
S31508002120FFF7FEBFFFF7FEBFFFF7FEBFFFF7FEBFD5
S31508002130FFF7FEBFFFF7FEBFFFF7FEBFFFF7FEBFC5
S31508002140FFF7FEBFFFF7FEBFFFF7FEBFFFF7FEBFB5
S31508002150FFF7FEBFFFF7FEBFFFF7FEBFFFF7FEBFA5
S31508002160FFF7FEBFFFF7FEBFFFF7FEBFFFF7FEBF95
S31508002170FFF7FEBFFFF7FEBFFFF7FEBFFFF7FEBF85
S31508002180FFF7FEBFFFF7FEBFFFF7FEBFFFF7FEBF75
S31508002190FFF7FEBFFFF7FEBFFFF7FEBFFFF7FEBF65
S315080021A0FFF7FEBFFFF7FEBFFFF7FEBFFFF7FEBF55
S315080021B0FFF7FEBFFFF7FEBFFFF7FEBFFFF7FEBF45
S315080021C0FFF7FEBFFFF7FEBFFFF7FEBFFFF7FEBF35
S315080021D0FFF7FEBFFFF7FEBFFFF7FEBFFFF7FEBF25
S315080021E0FFF7FEBFFFF7FEBFFFF7FEBFFFF7FEBF15
S315080021F0FFF7FEBFFFF7FEBFFFF7FEBFFFF7FEBF05
S31508002200FFF7FEBFFFF7FEBFFFF7FEBFFFF7FEBFF4
S31508002210FFF7FEBFFFF7FEBFFFF7FEBFFFF7FEBFE4
S31508002220FFF7FEBFFFF7FEBFFFF7FEBFFFF7FEBFD4
S31508002230FFF7FEBFFFF7FEBFFFF7FEBFFFF7FEBFC4
S31508002240FFF7FEBFFFF7FEBFFFF7FEBFFFF7FEBFB4
S31508002250FFF7FEBFFFF7FEBFFFF7FEBFFFF7FEBFA4
S31508002260FFF7FEBF00000000010203040102030499
S3110800227006070809FFFFFFFFFFFFFFFF3E
S705080020EDE5
