S010000054656D706C6174652E73726563D8
S315080000000804002015050008010500080305000876
S315080000100505000807050008090500080000000096
S315080000200000000000000000000000000B050008AA
S315080000300D050008000000000F050008110500085E
S3150800004055050008590500085D0500086105000802
S3150800005065050008690500086D05000871050008B2
S3150800006075050008790500087D0500088105000862
S3150800007085050008890500088D0500089105000812
S3150800008095050008990500089D050008A1050008C2
S31508000090A5050008A9050008AD050008B105000872
S315080000A0B5050008B9050008BD050008C105000822
S315080000B0C5050008C9050008CD050008D1050008D2
S315080000C0D5050008D9050008DD050008E105000882
S315080000D0E5050008E9050008ED050008F105000832
S315080000E0F5050008F9050008FD05000801060008E1
S315080000F005060008090600080D060008110600088E
S3150800010015060008190600081D060008210600083D
S3150800011025060008290600082D06000831060008ED
S3150800012035060008390600083D060008410600089D
S3150800013045060008490600084D060008510600084D
S3150800014055060008590600085D06000861060008FD
S3150800015065060008690600086D06000871060008AD
S3150800016075060008790600087D060008810600085D
S3150800017085060008890600088D060008910600080D
S31508000180950600089906000880B54548006850F0AD
S31508000190010043490860434800210160404800685F
S315080001A0414908403E4908604048414901603C4889
S315080001B0006830F480203A4908603E480021016012
S315080001C000F005F83C485FF00061016001BD82B0AF
S315080001D000200190002000903148006850F48030DB
S315080001E02F4908602E48006810F4003000900198E6
S315080001F0401C01900098002803D10198B0F5A06F23
S31508000200F0D127480068800302D50120009001E05C
S3150800021000200090009801283ED12848006850F038
S315080002208050264908602648006850F480402449D2
S3150800023008601C481B49096801601A48006850F4A0
S315080002400040184908601748006850F4A05015493E
S31508000250086016481B4901601148006850F0807014
S315080002600F4908600E4800688001FBD5164840F221
S31508000270056101600B48006880088000094908602C
S315080002800848006850F002000649086005480068FA
S3150800029010F00C000828F9D102B0704700000000E1
S315080002A00038024008380240FFFFF6FE04380240D4
S315080002B0103000240C38024008ED00E040380240B7
S315080002C00070004008544007003C024030B4002249
S315080002D00023002400252A0047E0012393400C68E8
S315080002E01C409C4240D1036803241500EDB26D0002
S315080002F0AC40A343036003680C791500EDB26D00AA
S31508000300AC40234303600B79012B02D00B79022BF7
S315080003101AD1836803241500EDB26D00AC40A343DF
S31508000320836083684C791500EDB26D00AC402343B9
S315080003308360436801249440A343436043688C79EF
S315080003409440A4B223434360C36803241500EDB266
S315080003506D00AC40A343C360C368CC791500EDB209
S315080003606D00AC402343C360521C102AB5D330BC81
S315080003707047018370474183704750F8041B61B189
S3150800038050F8042BD30744BFA9F101039A18002398
S3150800039042F8043B091FFAD1EFE7704780B50121FF
S315080003A0082000F04FF81F484FF4704101601D48BF
S315080003B0012101711B48002181711A4803214171ED
S315080003C018480021C17117491748FFF77FFF4FF4F6
S315080003D080511548FFF7CDFF144800F02BF84FF46D
S315080003E000511148FFF7C5FF104800F023F84FF4F5
S315080003F080410D48FFF7BDFF0C4800F01BF84FF48D
S3150800040000410948FFF7B5FF094800F013F84FF413
S3150800041070410548FFF7AFFF7FF07F4000F00AF80C
S31508000420D5E7000000000020000C0240FFFF3F0057
S31508000430FFFF7F0001B40098411E00910028FAD101
S3150800044001B07047C9B2002905D0064909680843B2
S315080004500449086005E00349096831EA00000149D2
S31508000460086070473038024010B5084979441C3195
S31508000470074C7C441A34A14206D0081D0A68511854
S3150800048088470146A142F8D110BD00BF0800000008
S3150800049014000000E7FEFFFF08000000000000202F
S315080004A0000000004EF68851CEF20001086840F4BC
S315080004B0700008604FF00070E1EE100A7047000007
S315080004C000F009F8002801D0FFF7CEFF0020FFF75B
S315080004D065FF00F002F80120704700F001B800003F
S315080004E00746384600F002F8FBE7000080B5C0462C
S315080004F0C046024A11001820ABBEFBE726000200E0
S315080005007047FEE7FEE7FEE7FEE77047704770476D
S3150800051070470000014880470148004789010008E4
S3150800052025050008C046C046FFF7BCFFFFF7C8FF11
S31508000530FFF7E6BFFFF7E5BFFFF7E4BFFFF7E3BF47
S31508000540FFF7E2BFFFF7E1BFFFF7E0BFFFF7DFBF47
S31508000550FFF7DEBFFFF7FEBFFFF7FEBFFFF7FEBFE1
S31508000560FFF7FEBFFFF7FEBFFFF7FEBFFFF7FEBFB1
S31508000570FFF7FEBFFFF7FEBFFFF7FEBFFFF7FEBFA1
S31508000580FFF7FEBFFFF7FEBFFFF7FEBFFFF7FEBF91
S31508000590FFF7FEBFFFF7FEBFFFF7FEBFFFF7FEBF81
S315080005A0FFF7FEBFFFF7FEBFFFF7FEBFFFF7FEBF71
S315080005B0FFF7FEBFFFF7FEBFFFF7FEBFFFF7FEBF61
S315080005C0FFF7FEBFFFF7FEBFFFF7FEBFFFF7FEBF51
S315080005D0FFF7FEBFFFF7FEBFFFF7FEBFFFF7FEBF41
S315080005E0FFF7FEBFFFF7FEBFFFF7FEBFFFF7FEBF31
S315080005F0FFF7FEBFFFF7FEBFFFF7FEBFFFF7FEBF21
S31508000600FFF7FEBFFFF7FEBFFFF7FEBFFFF7FEBF10
S31508000610FFF7FEBFFFF7FEBFFFF7FEBFFFF7FEBF00
S31508000620FFF7FEBFFFF7FEBFFFF7FEBFFFF7FEBFF0
S31508000630FFF7FEBFFFF7FEBFFFF7FEBFFFF7FEBFE0
S31508000640FFF7FEBFFFF7FEBFFFF7FEBFFFF7FEBFD0
S31508000650FFF7FEBFFFF7FEBFFFF7FEBFFFF7FEBFC0
S31508000660FFF7FEBFFFF7FEBFFFF7FEBFFFF7FEBFB0
S31508000670FFF7FEBFFFF7FEBFFFF7FEBFFFF7FEBFA0
S31508000680FFF7FEBFFFF7FEBFFFF7FEBFFFF7FEBF90
S31108000690FFF7FEBFFFF7FEBFFFF7FEBF37
S70508000525C8
