S00E00007465737430322E73726563F4
S31508000000C8050020BD280008A9280008AB28000854
S31508000010AD280008AF280008B12800080000000035
S31508000020000000000000000000000000B3280008DF
S31508000030B528000800000000B7280008B9280008FD
S31508000040092900080D2900081129000815290008A2
S31508000050192900081D290008212900082529000852
S31508000060292900082D290008312900083529000802
S31508000070392900083D2900084129000845290008B2
S31508000080492900084D290008512900085529000862
S31508000090592900085D290008612900086529000812
S315080000A0692900086D2900087129000875290008C2
S315080000B0792900087D290008812900088529000872
S315080000C0892900088D290008912900089529000822
S315080000D0992900089D290008A1290008A5290008D2
S315080000E0A9290008AD290008B1290008B529000882
S315080000F0B9290008BD290008C1290008C529000832
S31508000100C9290008CD290008D1290008D5290008E1
S31508000110D9290008DD290008E1290008E529000891
S31508000120E9290008ED290008F1290008F529000841
S31508000130F9290008FD290008012A0008052A0008EF
S31508000140092A00080D2A0008112A0008152A00089D
S31508000150192A00081D2A0008212A0008252A00084D
S31508000160292A00082D2A0008312A0008352A0008FD
S31508000170392A00083D2A0008412A0008452A0008AD
S31508000180492A00084D2A00082DE9F04FA5B08046F7
S3150800019015461E460FF2D850D0E90023CDE91223A2
S315080001A0049104AF0020786214AC6FF0004900E0B7
S315080001B055440020ADF8020012AB4FF0FF32294635
S315080001C00DF1020001F035F88246BAF1010F08DA9E
S315080001D02878B0F1010A6AEB0A0A6FEA0A004FEAC0
S315080001E0D07ABDF8020025280CBFAAF101035346B0
S315080001F0012B07DB2A4602A9404600F0F5FF002836
S3150800020000F1EB80BDF80200252807D10020F86030
S3150800021038617861B861F861386205E00028C7D1AD
S31508000220786ADCE040F0010015F8011F2029F9D0B2
S3150800023023290ED02B2904D02D2906D030290CD0FD
S315080002400FE040F0020080B2EEE740F0040080B212
S31508000250EAE740F0080080B2E6E740F0100080B216
S31508000260E2E72A290DD131680A1D32600968F96268
S31508000270002904D54942F96240F0040080B26D1C99
S3150800028011E00021F96209E0F96A494505D001EB58
S31508000290810302EB43013039F9626D1C2A78A2F119
S315080002A030010A29F0D329782E291CBF4FF0FF31D7
S315080002B0B9621CD115F8011F2A2906D131680A1D11
S315080002C032600968B9626D1C11E00021B96209E063
S315080002D0B96A494505D001EB810302EB4301303980
S315080002E0B9626D1C2A78A2F130010A29F0D3388642
S315080002F029780FF2844000F0C3FF08B115F8010B06
S315080003008DF842009DF84200682804D128786828AC
S315080003100AD1622005E06C2804BF28786C2803D12E
S3150800032071208DF842006D1C14A8B8602A78104612
S31508000330253828D01C3800F08B80001F022840F290
S315080003408780133800F0B080093800F08180801E5D
S3150800035000F04A81401E00F0F080401E022877D93E
S31508000360001F00F0EA80401F47D0401E00F09C8026
S31508000370401E37D0C01E0CD0801E00F09580C01ECF
S3150800038000F0928051E1F868411CF9602521015579
S3150800039055E19DF842006C28306814D0011D316083
S315080003A000687860BA6A002A03D500F085FF3861CC
S315080003B045E1002100F09CFF00281ABF7968401A21
S315080003C0B86A38613BE1011D3160026802A94046FE
S315080003D000F0D6F9002840F132814FF0FF3025B001
S315080003E0BDE8F08F3068011D316000680021CDE955
S315080003F0020114A878607821F2E09DF8420062288C
S3150800040018D0682806D06A280BD06C2819D071280D
S3150800041007D016E03068011D3160796A00680180EE
S315080004200DE13268101D3060786AC1171268C2E99A
S31508000430000104E13068011D3160796A00680170C5
S31508000440FDE03068011D3160796A00680160F6E0F8
S315080004503068C01D20F007003060034603F108002D
S315080004603060D3E90001CDE90201002904D5F86816
S31508000470411CF9602D210DE0388E810704D5F868F6
S31508000480411CF9602B2105E0C00704D5F868411C1A
S31508000490F96020210155F86814A9401878601146BA
S315080004A002A800F06DFBCAE09DF842306C2B08BF2D
S315080004B0306811D0712B08BF306802D06A2B3068BB
S315080004C00AD1C01D20F00700306084460CF10800F0
S315080004D03060DCE9000103E0011D3160006800219D
S315080004E0CDE90201682B04BFDDE9020180B20BD019
S315080004F0622B04BFDDE90201C0B205D0742B18BF18
S315080005007A2B04D1DDE902010021CDE9020197F831
S31508000510300000075FD5DDE90201002908BF002881
S3150800052059D042F02000782855D1F8683021015575
S31508000530401C411CF96002554DE09DF842006228B6
S315080005400CD0682810D06A281AD06C2824D07128B4
S3150800055016D0742820D07A280CD01DE03068011DEA
S31508000560316090F900001BE03068011D3160B0F978
S31508000570000015E03068011D31600068002110E0B8
S315080005803068C01D20F007003060034603F10800FC
S315080005903060D3E9000104E03068011D316000686D
S315080005A0C117CDE90201DDE90201002904DAF8687C
S315080005B0411CF9602D210DE0388E810704D5F868B5
S315080005C0411CF9602B2105E0C00704D5F868411CD9
S315080005D0F96020210155F86814A940187860114679
S315080005E002A800F03AFA2AE09DF842006C2808D0E2
S315080005F0F868411CF96031680A1D326009680155BE
S315080006001DE03068011D31600068ADF80400002067
S31508000610ADF806004FF0FF30B86201AA02A94046BD
S3150800062000F0AEF800280AD5D7E6F868411CF9604C
S31508000630252101551AB1F868411CF96002556D1C4F
S31508000640F86AF968401AB969401A3969401AF969A5
S31508000650401A7969401A396AA0EB010A97F83000FE
S31508000660400712D420208DF80000BAF1010F0CDBE8
S31508000670D346012300AA02A9404600F0B5FD00288A
S315080006807FF4ABAEBBF1010BF3D1FB6814AA02A948
S31508000690404600F0A9FD00287FF49FAE30208DF873
S315080006A00000D7F818B0BBF1010F0BDB012300AA35
S315080006B002A9404600F098FD00287FF48EAEBBF1F3
S315080006C0010BF3D13B697A6802A9404600F08CFD1C
S315080006D000287FF482AE30208DF80000D7F81CB0D1
S315080006E0BBF1010F0BDB012300AA02A9404600F06B
S315080006F07BFD00287FF471AEBBF1010BF3D17B695A
S3150800070038697968421802A9404600F06DFD00284C
S315080007107FF463AE30208DF80000D7F820B0BBF127
S31508000720010F0BDB012300AA02A9404600F05CFD7D
S3150800073000287FF452AEBBF1010BF3D197F83000D5
S3150800074040077FF536AD20208DF80000BAF1010F7D
S31508000750FFF62FAD012300AA02A9404600F044FD8A
S3150800076000287FF43AAEBAF1010AF3D121E5000078
S315080007700000000000000000686A6C747A4C0000F3
S315080007802DE9F04F95B083460F461446D7F830A0AA
S31508000790BAF1000F48BF6FF0004A00F0D5FD796B3B
S315080007A0401801900FF67022D2E90001CDE9020146
S315080007B097F83800400702D40198412805D20DF170
S315080007C010094020019000250AE000F0C3FD81468B
S315080007D0B9F1000FF7D14FF0FF303BE1AAEB080A59
S315080007E0BAF1010FC0F2A98002AA21880DF1010011
S315080007F000F00EFE5FEA000800F1BF80208818B9F5
S31508000800B8F1010800F1B980C245C0F2968078694E
S31508000810019908EB0002914280F080807D63404296
S31508000820396A401AB969401A796A401AF969401A48
S31508000830B96A451A97F83800400710D420208DF871
S315080008400000012D0BDB2E46012300AA3946584627
S3150800085000F0CAFC002840F09080761EF4D17B692F
S315080008604A463946584600F0BFFC002840F08580C5
S3150800087030208DF800003E6A012E09DB012300AA0C
S315080008803946584600F0B0FC002876D1761EF5D1D8
S31508000890BB69FA683946584600F0A6FC00286CD1B0
S315080008A030208DF800007E6A012E09DB012300AA9C
S315080008B03946584600F098FC00285ED1761EF5D1D8
S315080008C0FB69B869F96842183946584600F08CFC45
S315080008D0002852D130208DF80000BE6A012E09DBAF
S315080008E0012300AA3946584600F07EFC002844D168
S315080008F0761EF5D197F8380040070DD520208DF8DB
S315080009000000012D08DB012300AA3946584600F0ED
S315080009106BFC90BB6D1EF6D100257D6142460DF13C
S3150800092001017869484400F081FD7869404478619E
S3150800093034F8020B00287FF451AF786B7969401AB6
S31508000940396A401AB969401A796A401AF969401A27
S31508000950B96AA0EB010897F83800400712D420209E
S315080009608DF80000B8F1010F0CDB4446012300AAFC
S315080009703946584600F038FC10B14FF0FF3562E0B2
S31508000980641EF3D17B694A463946584600F02CFC6A
S315080009900028F2D130208DF800003C6A012C09DBD2
S315080009A0012300AA3946584600F01EFC0028E4D167
S315080009B0641EF5D1BB69FA683946584600F014FC3E
S315080009C00028DAD130208DF800007C6A012C09DB7A
S315080009D0012300AA3946584600F006FC0028CCD167
S315080009E0641EF5D1FB69B869F96842183946584654
S315080009F000F0FAFB0028C0D130208DF80000BC6A50
S31508000A00012C09DB012300AA3946584600F0ECFB05
S31508000A100028B2D1641EF5D197F83800400710D5E2
S31508000A2020208DF80000B8F1010F0ADB012300AA87
S31508000A303946584600F0D8FB00289ED1B8F101087F
S31508000A40F4D17D617D6304A881451CBF484600F04A
S31508000A5029FD284615B0BDE8F08F2DE9FA4B86B07A
S31508000A6005462F696F2908BF082605D041F02000E2
S31508000A70782814BF0A2610263C24D5E900018146A9
S31508000A808B469DF81820642A18BF692A05D10029C3
S31508000A9003DAD9F100096BEB4B0BBBF1000F08BF6A
S31508000AA0B9F1000F0CD1286B50B9082E44D195F82E
S31508000AB03800000740D53B24302087F83B003BE050
S31508000AC0A4F101084446F017CDE9046048465946A2
S31508000AD0DDE9042300F02AFDCDE90201CDE9009BFA
S31508000AE0DDE90223DDE90401A0FB029BDDE9000143
S31508000AF0A0EB09003030C0B23A2803D39DF818108D
S31508000B005139081808F80700DDE9029BBBF1000F08
S31508000B1008BFB9F1000F03D0E868E1198842CFD3BE
S31508000B20082E09D195F83800000705D5E05D30286C
S31508000B3002D0641E3020E055C4F13C00A861E119DA
S31508000B40E960296B884207DA081A2862288F4FF667
S31508000B50EF710840288710E000290ED595F838105F
S31508000B6001F01401102908D1696B6A69891A2A6A81
S31508000B70891A0C1A012CA8BF2C6208B0BDE8F08BA4
S31508000B802DE9F24F8EB0054604AFD5E90001CDE94F
S31508000B9002019DF8380040F020008DF80000612819
S31508000BA00BD0286B002848BF062005D404BF9DF843
S31508000BB00000672801D1012028636968C1F30A503B
S31508000BC040F2FF7398421CD1080304BF2868002826
S31508000BD009D10320A8619DF8380061381A2837D34F
S31508000BE00FF2486108E00320A8619DF838006138D3
S31508000BF01A282AD30FF22C610322E86800F016FCA3
S31508000C00BBE1010017D1284600F007FD012812DBD9
S31508000C10002400209DF80010612920D1E9683022BF
S31508000C2001F8012B4A1CEA609DF83820612A0CBF9E
S31508000C30782258220FE040F2FE316A6861F31E52AC
S31508000C406A60441A4FF0FF30E4E70FF2D451D3E755
S31508000C500FF2D451D0E70A706969891C696110B925
S31508000C600026B0467FE19DF80000612840F0978095
S31508000C70286B00284CBF2126461C36B2771CD5E9BE
S31508000C8000ABDDE902010022002300F0E9FC3ABFCF
S31508000C908BF00040CDE902A0CDE902ABA4F104082F
S31508000CA08DF810200DF11109012F33DBDDE9020162
S31508000CB00022002300F0ECFC2CD21C2102A800F034
S31508000CC0FFFCDDE9020100F08FFD0446FF1F012F3E
S31508000CD009DB00F0B5FD02460B46DDE9020100F02E
S31508000CE0C7FDCDE9020109F20700072104E004F077
S31508000CF00F0200F8012D2411012C01DB491EF6D53F
S31508000D00491E5CBF002200F8012DF9D500F207093B
S31508000D10012FCBDA0DF11100A9EB00010DF1110736
S31508000D20B142B8BF0E4636B2002E31D4304688429C
S31508000D3006DA04A941184978082928BF0F2100D2E4
S31508000D40002104AA821800E0761E401E12F8013916
S31508000D508B42F9D00F2904D104A941184A78521CAC
S31508000D604A70002803D504AF761C08F1040836B289
S31508000D70701E0DD4C1190A783032D2B23A2A03D37A
S31508000D809DF838303A3B9A1801F80129401EF2D5E9
S31508000D90286B002840F1E780701E2863E3E0DDE950
S31508000DA002010022002300F05BFC05D2DDE9020106
S31508000DB081F00041CDE9020124B247F29750604321
S31508000DC06F4990FBF1F80FFA88F8C8F10704002775
S31508000DD0DFF8B091012C19DBDDE902ABE00707D596
S31508000DE0504659463A464B4600F002FE82468B4626
S31508000DF06410384649463A464B4600F0F9FD074620
S31508000E008946002CEAD1CDE902AB21E0644292463C
S31508000E10DFF874B114D0E00707D5504659463A466C
S31508000E204B4600F0E5FD82468B4664103846494637
S31508000E303A464B4600F0DCFD07468946002CEAD1C7
S31508000E40DDE9020152465B4600F0A4FECDE9020147
S31508000E509DF8000066280CBF08F10A000620296BD9
S31508000E604618142EA8BF132630208DF810000DF151
S31508000E701104464F012E33DBDDE9020100F0CAFCFE
S31508000E8004F1080104220A24B0FBF4F303EB830EF1
S31508000E90A0EB4E00303001F8010DB3FBF4F000EB87
S31508000EA08004A3EB4403303301F8013D521EEAD116
S31508000EB001F10804083E012EDCDBDDE9020100F041
S31508000EC0A9FC00F0C7FC02460B46DDE9020100F06A
S31508000ED0CFFC00223B4600F08BFDCDE90201CBE7B3
S31508000EE00DF11100201A0DF111079DF81110302986
S31508000EF006D1401EA8F1010817F8011F3029F8D0BD
S31508000F009DF80010662904BF0FFA88F808F1010158
S31508000F1003D065290CBF012100212A6B8E1836B231
S31508000F20B042B8BF064636B2002E1CD431468142BE
S31508000F3004DAC85D352828BF392000D23020CA19FE
S31508000F40521E00E0761E491E12F801398342F9D076
S31508000F50392802D1C85D401CC855002903D57F1E13
S31508000F60761C08F101080FFA88F0009033B23A4669
S31508000F709DF83810284600F00BF80FB0BDE8F08F42
S31508000F80A0860100000024400000F03F84D7974166
S31508000F902DE9F04786B006468A4690461C46BDF9B6
S31508000FA0385000F038FF406A90F80090376B012CF3
S31508000FB002DA01240FF278284AF02000662807D0C2
S31508000FC067287AD16FF003018D427CDBBD427ADA5D
S31508000FD06D1C66280AD096F83800000702D4BC4271
S31508000FE0B8BF27462DB27F1B48BF0027F068B169F6
S31508000FF02DB2012D21DA4A1C30230B54012F03DAB6
S3150800100096F83810090702D502F80090521CB2610A
S31508001010EF42B8BF7D422DB269427162EF19A7420D
S31508001020B8BF3C4624B2F46122464146B369181853
S3150800103000F0FCF9381BB062BFE00818AC4216DABB
S315080010402246414600F0F2F9B1696118B161281BE0
S315080010507062012F03DA96F83800000705D5F068A4
S3150800106001F80090F069401CF061B762A5E02A46D5
S31508001070414600F0DBF9B0692818B061641B012FFE
S3150800108003DA96F83810090704D5411CB161F168EE
S3150800109000F8019024B2A742B8BF3C4624B22246C3
S315080010A005EB0801B069F368C01800F0BFF9B0692C
S315080010B02018B061381B70627FE0BAF1610F14D155
S315080010C04FF0700A16E0BC4204DA96F838100907A1
S315080010D058BF27467F1E48BF0027BAF1670F14BFBF
S315080010E04FF0450A4FF0650A04E0BAF1410F08BF10
S315080010F04FF0500AB1694A1CF06818F8013B0B54C6
S31508001100012F03DA96F83810090702D502F800907D
S31508001110521CB261012F10DB641E24B2A742B8BF6D
S315080011203C4624B222464146B369181800F07EF9B7
S31508001130B0692018B061381B7062B069F16800EBBD
S31508001140010808F801AB002D5CBF2B2008F8010B3D
S3150800115003D52D2008F8010B6D42002402AF2DB2ED
S31508001160012D0EDB0A22294600A800F06DFE019823
S3150800117007F8010B009D641C2DB2012DF2DA022C32
S3150800118006DA4AF02000652804BF302008F8010B6B
S315080011901CB9302008F8010B09E0012C07DB641E96
S315080011A002A8205C303008F8010B012CF7DAB06988
S315080011B0F1684018A8EB0000F06196F8380000F0D6
S315080011C0140010280DD17069B1690818716A0818D9
S315080011D0F1690818B16A0818716B8842BCBF081A09
S315080011E0306206B0BDE8F087F8B504460D461646E7
S315080011F01F46002077B116F8011BA868A047A8600B
S3150800120030B1E86A401CE86200207F1EF3D1F2BDC7
S315080012104FF0FF30F2BD00000000000000000000A3
S315080012206E616E004E414E00696E6600494E46007C
S315080012303000F8B504460D4616461F4600F00CFE6B
S315080012403B4632462946204601B0BDE8F04000F04C
S315080012501BBE10B450F8041B81B102681218001D99
S3150800126050F8043BDC0744BFA9F10104E31852F81F
S31508001270044B43F8044B091FF9D1EBE710BC704740
S315080012800278C9B28A421AB11CBF10F8012FF9E7D1
S3150800129018BF0020704750F8041B61B150F8042BA2
S315080012A0D30744BFA9F101039A18002342F8043B67
S315080012B0091FFAD1EFE7704700F10103810704D04F
S315080012C010F8011B89B18107FAD10268B2F1013120
S315080012D0914311F0803F04BF50F8042FF6E710F849
S315080012E0011B11B110F8011BFBE7C01A7047000477
S315080012F0C9B2830706D0521E22D310F8013B994281
S31508001300F7D11FE0083A13D302F1040241EA01219A
S3150800131041EA014150F8043B121F21BF4B40A3F19B
S31508001320013C2CEA030C1CF0803FF3D0C9B2001F25
S31508001330083210F8013B521E28BF91EA030FF8D86D
S3150800134018BF0120401E704780B500F085FD0120BA
S3150800135002BD000870B5054605F10F00C408E40093
S31508001360012000F0EBFDA5422BD2082C04D208245C
S3150800137002E0083000F096F8244D286801000CD1E8
S31508001380291D0868B8B10268A24238BF011DF8D302
S3150800139016E01368A34213D2111D0A68002AF8D171
S315080013A00068291D00E0111D0A68824203D01368EF
S315080013B0A342F8D304E000F011FE0028D9D1002199
S315080013C021B9012000F0FEFD002070BD0E683068CE
S315080013D0A0F10802A2423CBF7068086007D3A219B0
S315080013E00A6073685360001B0A68106034600868F6
S315080013F000281DBF41680029001D00202860012023
S3150800140000F0E0FD06F1080070BD0000B8010020FC
S3150800141070B504460D46164600F01EFD32462946AE
S315080014202046BDE8704000F021BD0A0062B38B0774
S3150800143008D0521E11F8013B00F8013B00F0248049
S315080014408B07F6D1830740F0208000BF103A07D3F8
S3150800145030B4B1E83810103AA0E83810F9D230BCE8
S31508001460530724BFB1E80810A0E8081044BF51F894
S31508001470043B40F8043BD20724BF31F8022B20F87E
S31508001480022B44BF0B7803707047083A07D3B1E8BC
S315080014900810083A40F8043B40F804CBF7D2530743
S315080014A0E4E70B0000B9704710B5A0F108042068FE
S315080014B0082837D310F0070034D1012000F03EFD8C
S315080014C01948416809B18C4203D26160446017E04B
S315080014D019464B680BB1A342FAD30A6853189C42C3
S315080014E01BD3A34204D123689A180A600C4607E066
S315080014F04A681AB123681B199A420ED362604C6077
S31508001500616851B1226813198B4206D10023036022
S31508001510086880182060486860600120BDE81040AF
S3150800152000F050BD10BD0000B80100201B4213D1C9
S31508001530094236D12AB18446B0FBF2F002FB10C24A
S31508001540704700F05FBDFCD30022002370470B00F4
S315080015500200002100207047904271EB030CF6D37D
S3150800156070B5B1FA81F4B3FA83F52C1BA340C4F124
S31508001570200532FA05F63343A2405FF00046E640FE
S3150800158002E05B085FEA3202841A71EB030524BFA6
S31508001590204629467641F4D302000B00300000218C
S315080015A070BD012ACFD970B5140C20D0B1FA81F4D8
S315080015B0B2FA82F5C4F120046419B4F12006D6D330
S315080015C0B2405FF00044F440002502E052085FEAAA
S315080015D03303C61A71EB020E24BF304671466441C6
S315080015E06D41F3D302000B002000290070BD0C46A4
S315080015F0B1FBF2F102FB11452D0445EA1045B5FB96
S31508001600F2F402FB145580B240EA0545B5FBF2F048
S3150800161002FB105240EA044070BD30B4416843688A
S3150800162001F0004201211B031B0B436004BF036842
S31508001630002B0ED003684468DD0F45EA4404446075
S315080016405B000360491EE302F4D543681B031B0BCA
S31508001650436043681A43426030BC08467047070037
S315080016604FF4001C1CEB410F94BF1CEB430F09E021
S3150800167041EA030C50EA4C0C52EA0C0C03D299428C
S3150800168008BF9042704714BF8B42824270470700DA
S315080016904FF4001C1CEB410F94BF1CEB430F09E0F1
S315080016A041EA030C50EA4C0C52EA0C0C03D28B426A
S315080016B008BF8242704714BF9942904270470000A3
S315080016C070B50446606840F2FF72C0F30A500D46D2
S315080016D0904207D16068000304BF206800281AD02A
S315080016E0022070BD010004D12046FFF796FF0128AD
S315080016F069DA012D11DB40F2FF71091A8D420CD30C
S31508001700606800284CBF9FED310B9FED320B51EC02
S31508001710100BC4E90001012070BD4142A94261686D
S3150800172006DA2E4A4019114041EA0050606057E037
S315080017306268401E1203120B451942F4801205F125
S31508001740350001F000416260352803D3616000204E
S31508001750206070BD002215F11F0F05DA6068226847
S315080017602060002020356060684213D0521E25682C
S315080017709241C0F12003D2439D4055EAD2722568B2
S315080017806668C54006FA03F32B432360636823FAA9
S3150800179000F06060606808436060B2F1004F03D8EB
S315080017A00BD12078C00708D52068401C2060206827
S315080017B018B96068401C606012E06068884204BF1F
S315080017C020680028F8D1002070BD00000000000045
S315080017D00000F0FF000000000000F07FFFFF0F8010
S315080017E04FF0FF3070BD0000F446400D40EAC120BE
S315080017F0490006D200F014F8004248BF6FF00040D6
S31508001800604700F00DF84FF0004188428CBF08464B
S3150800181040426047400D40EAC120490080F00D80F3
S3150800182040F00040490DA1F58061491C05D4D1F16D
S315080018301F0154BFC840C01770474FF000007047DB
S31508001840010040F10980F446404200F005F851F0E5
S3150800185000416047010000BF09D0B0FA80F1884016
S31508001860C91CC1F58461090501EBD0214005704703
S3150800187070B44FF0004591EA030F44BF6B4000F087
S31508001880C3BB00BF841A71EB030604D26E40001B6B
S31508001890B141121973414FF4001C1CEB410F34BFC0
S315080018A07CEB430684E00C0DA4EB1356362E7DDC48
S315080018B0012E43DC45EAC32343EA525312BFD20240
S315080018C092025B08240545EAC12141EA5051D2EB50
S315080018D0C020994125D407D1B0FA80F610FA06F14E
S315080018E064D00020203608E0B1FA81F6B140C6F18E
S315080018F0200220FA02F21143B0404FEAF474B4EB26
S31508001900465434F001064FEA74040AD8D6F5001690
S31508001910760D04F00044F04061FA06F25040F140BA
S315080019204840C00A40EA415021F0004128BF5FEA1A
S31508001930500550F1000044EBD12137E045EAC323B6
S31508001940DB0A45EAC121C90AB6F120050EDD42EADD
S315080019500242120CC5F1200603FA06F6EB4042EAEB
S3150800196006056D42984161F100010DE062FA06F53F
S31508001970F240554063FA06FC82EA0C02F3405A40EC
S315080019806D42904161EB030111F4801F05D1641E7D
S31508001990620502D06D004041494121F48011430897
S315080019A075F1004350F1000041EB045170BC7047DB
S315080019B01CEB410F15D223F0004352EA43060BD025
S315080019C04FEA4C0CBCEB410F04D80C0D661E342EA6
S315080019D0B7DDEBE7801A994150EA410608BF0021B6
S315080019E0E4E708BF1CEB430F28BF6FF00001DDE7F3
S315080019F0B0B581EA030C0CF0004C40F2FF7515EA0D
S31508001A0011541DBF15EA1357AC42AF4239E0E41929
S31508001A1023EA455343F48013C90241F0004141EAE1
S31508001A20505EC7021100A7FB020200284FF0000013
S31508001A30EEFB01204FF00001E3FB072118BF42F03F
S31508001A400102401800214941E3FB0E01A4F5806418
S31508001A500F0302D252004041494154F101046CDDA2
S31508001A60470872F1004250F1000051EB0451A1F50C
S31508001A7080115CBF41EA0C01B0BD4CEA055100205B
S31508001A80B0BD05EA1357AC4214BFAF4241E050EA75
S31508001A90410E1CBF52EA430E02E061460020B0BD6B
S31508001AA024423C441BD15FEA070EF6D0090302BF65
S31508001AB001460020AEF1140EB1FA81F7AEEB070429
S31508001AC001FA07FE0C37C7F1200100FA07F7C840EC
S31508001AD04EEA000E23EA455343F48013A2E733F097
S31508001AE00043B3FA83F704BFB2FA82FE77440B3F8A
S31508001AF0E41BB7F1200E2FBF02FA0EF3BB40C7F165
S31508001B00200E22FA0EFE38BF43EA0E03BA40641CC2
S31508001B1082E750EA410E14BF52EA430E6FF0000105
S31508001B204FF4001717EB430F8ABF194617EB410FFF
S31508001B30B5E74CEA05510020B0BDD4F10104B4F173
S31508001B4020070FDAC4F12007520828BF42F0010225
S31508001B5010FA07F501FA07F7E1BF2A43E0403843D0
S31508001B60E1400FE0352C98DCC7F1200452EA400228
S31508001B7020FA07F218BF42F0010231FA07F0A14035
S31508001B800A43002172F1004250F1000051EB0C01AA
S31508001B90B0BD0000F0B540F2FF7581EA030C0CF009
S31508001BA0004C15EA11541DBF15EA1357AC42AF4253
S31508001BB0E5E0BC41C1F31301C3F31303801A99414D
S31508001BC043F4801304D2641E4000494180185941E9
S31508001BD0C90241EA5051B1FBF3F603FB1611A2FB09
S31508001BE00675D7EBC020A94102D2761E8018594146
S31508001BF0C90241EA5051B1FBF3FE03FB1E11A2FBD9
S31508001C000E75D7EBC020A94103D2AEF1010E80189C
S31508001C105941890241EA9051760546EA8E2EB1FB72
S31508001C20F3F603FB1611A2FB0675D7EB8020A94134
S31508001C3002D2761E80185941C90241EA50514EEA2D
S31508001C40060EB1FBF3F603FB1611A2FB0675D7EBDE
S31508001C50C020A94102D2761E80185941C90241EA1C
S31508001C605051B1FBF3F703FB1711A2FB0735D3EB72
S31508001C70C020A94167F100070CBF004247F00107E1
S31508001C8066F3D5274FEA1E31B80814F5806412DDCD
S31508001C90BD0775F1004250EB0E5051EB045111F59A
S31508001CA0801F5CBF41EA0C01F0BD4CF07F6141F03A
S31508001CB0E0410020F0BDBD076D0840EA0E5041F432
S31508001CC08011D4F10104B4F120060ADAC4F1200621
S31508001CD00200E04001FA06F3E1401843B24015431A
S31508001CE00EE0342C13DCC6F1200445EA40056D08E5
S31508001CF020FA06F2154321FA06F0A1400D43002109
S31508001D0075F1004250F1000051EB0C01F0BD0020C6
S31508001D105FEA0C01F0BDCFB992185B41B3FA83F7BD
S31508001D2004BFB2FA82F6BF190B3FB7F120062FBFE0
S31508001D3002FA06F3BB40C7F1200622FA06F638BFB8
S31508001D403343BA401CB1E419641E33E77F4231F0CD
S31508001D500041B1FA81F404BFB0FA80F6A4190B3C2D
S31508001D60B4F120062FBF00FA06F1A140C4F12006FF
S31508001D7020FA06F638BF3143A0403C1B1AE7AC42AE
S31508001D801ABF05EA1357AF4212E050EA41061CBFD4
S31508001D9052EA4306BFE750EA4107304661461CBF90
S31508001DA041EA0551F0BD52EA430C08BFC143F0BDF4
S31508001DB000204FF4001616EB410F98BF16EB430FA1
S31508001DC008BF16EB410F24BFC14305E016EB430FCE
S31508001DD00CBF61464CEA0551F0BD000080B51348BA
S31508001DE000F07CF90FF24801016041608160C16032
S31508001DF00161416181610FF23C0242628162C16206
S31508001E00016341630FF2300282630FF23402C26348
S31508001E100164416401BD10B5044800F05FF9044649
S31508001E20206808B9FFF7DAFF204610BD0000002039
S31508001E30000000002E00000066616C73650000005B
S31508001E40747275650000000091FBF2F303FB121132
S31508001E50C0E900317047000080B5DFF80C0000F0DB
S31508001E603DF9806902BD0000B400002030B438B9DD
S31508001E700FF24400D0E90045C2E90045002001E020
S31508001E800170012030BC704730B439B90FF2300008
S31508001E90D0E90045C3E9004500200BE012B96FF010
S31508001EA0010007E008B10A7802800978481E8041D7
S31508001EB0C043C00F30BC704700000000000000009F
S31508001EC0000000000000000010B5434C2068A0B3D5
S31508001ED0201D00F005F904F1080000F001F904F1ED
S31508001EE00C0000F0FDF804F1100000F0F9F804F118
S31508001EF0140000F0F5F804F1180000F0F1F804F108
S31508001F001C0000F0EDF804F1200000F0E9F804F1F7
S31508001F10240000F0E7F804F1280000F0E3F804F1E3
S31508001F202C0000F0DFF804F1300000F0DBF804F1D3
S31508001F303400BDE8104000F0D5B810BD38B50446E9
S31508001F40254D286890BB281D00F0C9F805F1080042
S31508001F5000F0C5F805F10C0000F0C1F805F1100015
S31508001F6000F0BDF805F1140000F0B9F805F1180005
S31508001F7000F0B5F805F11C0000F0B1F805F12000F5
S31508001F8000F0ADF805F1240000F0ABF805F12800E3
S31508001F9000F0A7F805F12C0000F0A3F805F13000D1
S31508001FA000F09FF805F1340000F09BF80120286046
S31508001FB0052C06D205EB84002430BDE8324000F03B
S31508001FC092B831BD052805D2034901EB80002430BB
S31508001FD000F08AB8704700007001002006490868BA
S31508001FE008B100207047054808600549C908C900B6
S31508001FF0091A0160704700BFC0010020C80500200B
S31508002000C807002070470000841A71EB030603D244
S31508002010001BB141121973414FF4001C1CEB410F10
S3150800202034BF7CEB430443E00C0DA4EB1356352E6A
S3150800203050DC45EAC323DB0A45EAC121C912B6F1D9
S3150800204020050DDD63FA05F6EB4086EA0305124224
S3150800205018BF45F00105C01851F100010CD213E074
S3150800206062FA06F5F2405540F3415A40B340F34050
S315080020705A408018594107D349085FEA30005FEA99
S31508002080350528BF45F0010501F58011420875F1AF
S31508002090004250F1000041EB045170BC4FF4001CA3
S315080020A01CEB410F38BF70470020090D0905704722
S315080020B01CEB410F10D252EA43060BD0BCEB410F82
S315080020C005D80C0DAB43661E342EB5DD02E0AB43D6
S315080020D08018594170BC704770BC7047704770478C
S315080020E070477047704770477047000001B4009802
S315080020F0411E00910028FAD101B0704764485FF488
S31508002100E131016062480021818061480021C18077
S315080021105F48002101815E48002181815C480C21CD
S3150800212041817047704730B583B004000D00012126
S31508002130E4B2584850F82400E4B2574A52F824202A
S31508002140104300F03AF9E4B2002C06D10121E4B2BA
S31508002150524850F8240000F040F9E4B2504830F8EC
S315080021601420D2B2E4B24F4830F81410E4B24E4804
S3150800217050F8240000F0A7F9E4B24C4830F81420CF
S31508002180D2B2E4B24A4830F81410E4B2494850F8DA
S31508002190240000F098F900208DF8060001208DF83B
S315080021A0070002208DF80400E4B2434830F8140012
S315080021B0009002208DF8050000A9E4B23A4850F8CC
S315080021C0240000F029F902208DF80400E4B23B4807
S315080021D030F81400009000A9E4B2364850F82400FC
S315080021E000F01AF92900E4B2354850F8240000F046
S315080021F093F90121E4B2324850F8240000F0EEF9D0
S3150800220037BD80B5FFF78EFFFFF778FF204900201E
S31508002210FFF789FF2B4800F001FA4FF480512A484E
S3150800222000F04DF92948FFF761FF4FF400512648A1
S3150800223000F045F92548FFF759FF4FF48041224839
S3150800224000F03DF92148FFF751FF4FF400411E48C1
S3150800225000F035F91E48FFF749FF4FF470411A4858
S3150800226000F02FF97FF07F40FFF740FFD5E710B564
S3150800227004002100C9B289B2164800F0BDF9402110
S31508002280144800F0BDF90028F9D0200010BD000060
S31508002290A8010020DC280008E0280008D828000843
S315080022A05E1600082A140008A40000208E160008EE
S315080022B0A2140008A8000020EE1200085213000815
S315080022C0A000002084270008000C0240FFFF3F0002
S315080022D0FFFF7F0000480040F0B4002100220023E1
S315080022E0022400250226DFF814713F6817F00C0750
S315080022F03900002904D0042906D0082908D035E079
S31508002300DFF80011016034E0DFF8FC10016030E00E
S31508002310DFF8EC100968C1F38055DFF8E4100968A6
S3150800232011F03F06002D0BD0DFF8DC10B1FBF6F1FB
S31508002330DFF8CC201268C2F3881202FB01F30AE028
S31508002340DFF8C010B1FBF6F1DFF8B4201268C2F36B
S31508002350881202FB01F3DFF8A8100968C1F30141EE
S31508002360491C4C00B3FBF4F1016002E0DFF894105D
S315080023700160DFF88810096811F0F0010909DFF833
S315080023808C208A5C0168D14041601C49096811F4B7
S31508002390E051890ADFF874208A5C4168D14081607F
S315080023A01649096811F46041490BDFF860208A5C18
S315080023B04168D140C160F0BC7047C9B2002905D058
S315080023C01349096808431249086005E01049096875
S315080023D031EA00000E4908607047C9B2002905D0E5
S315080023E00C49096808430B49086005E0094909686A
S315080023F031EA0000074908607047000008380240C3
S31508002400043802400024F40000127A0090000020EC
S31508002410303802404038024030B4002200230024FD
S3150800242000252A0047E0012393400C681C409C4283
S3150800243040D1036803241500EDB26D00AC40A343F8
S31508002440036003680C791500EDB26D00AC402343B8
S3150800245003600B79012B02D00B79022B1AD1836802
S3150800246003241500EDB26D00AC40A3438360836876
S315080024704C791500EDB26D00AC4023438360436888
S3150800248001249440A343436043688C799440A4B2E2
S3150800249023434360C36803241500EDB26D00AC40C6
S315080024A0A343C360C368CC791500EDB26D00AC4098
S315080024B02343C360521C102AB5D330BC704701832E
S315080024C0704741837047F0B400230024D2B211F05C
S315080024D00705EDB2AD00AA40130089B2CA1010EB89
S315080024E0820289B2CD1010EB85052D6A0F2611F0F0
S315080024F00707FFB2BF00BE40B543156289B2CA10CE
S3150800250010EB8202126A1A43140089B2C91010EB42
S3150800251081000462F0BC70477FB504000D000020FE
S31508002520002100220023AE89002E208A30F4405074
S31508002530E98808432082A08927490840A9882A896A
S3150800254011436A8911430843A081A08A30F4407078
S31508002550A9890843A08200A8FFF7BEFE1C4884424A
S3150800256002D01C48844201D1039900E00299A0894F
S31508002570000407D5192000FB01F029684900B0FBC3
S31508002580F1F206E0192000FB01F029688900B0FB8A
S31508002590F1F26420B2FBF0F000010109642303FBA9
S315080025A01123A189090408D5D90032316422B1FB67
S315080025B0F2F111F00701084307E0190132316422EC
S315080025C0B1FBF2F111F00F01084320817FBD000035
S315080025D00010014000140140F3E9FFFFC9B20029C9
S315080025E004D0818951F40051818104E081894DF636
S315080025F0FF72114081817047C905C90D81807047F6
S3150800260000224FF4007389B299420088084201D02B
S31508002610012200E000221000C0B270470EB400B5D7
S3150800262082B003A9009100AB024601210348784411
S315080026300A30FDF7A9FD06BC5DF810FB490200004B
S3150800264080B54548006850F0010043490860434892
S315080026500021016040480068414908403E49086039
S315080026604048414901603C48006830F480203A49B6
S3150800267008603E480021016000F005F83C485FF01C
S315080026800061016001BD82B0002001900020009029
S315080026903148006850F480302F4908602E48006899
S315080026A010F4003000900198401C01900098002812
S315080026B003D10198B0F5A06FF0D1274800688003D0
S315080026C002D50120009001E0002000900098012822
S315080026D03ED12848006850F08050264908602648B0
S315080026E0006850F48040244908601C481B49096862
S315080026F001601A48006850F40040184908601748F5
S31508002700006850F4A0501549086016481B49016036
S315080027101148006850F080700F4908600E4800683C
S315080027208001FBD5164840F2056101600B48006838
S3150800273080088000094908600848006850F00200CF
S31508002740064908600548006810F00C000828F9D109
S3150800275002B0704700000000003802400838024006
S31508002760FFFFF6FE04380240103000240C38024001
S3150800277008ED00E040380240007000400854400769
S31508002780003C02400A0D5553415254205072696E5E
S315080027907466204578616D706C653A20726574615F
S315080027A072676574207468652043206C696272617B
S315080027B07279207072696E74662066756E637469C4
S315080027C06F6E20746F207468652055534152540A01
S315080027D00D00000010B5084979441C31074C7C44AB
S315080027E01A34A14206D0081D0A68511888470146BE
S315080027F0A142F8D110BD00BF080000002800000063
S3150800280097EAFFFF18010000AC0000200000000056
S3150800281043EAFFFFAC000000380200000000002079
S31508002820000000004EF68851CEF20001086840F418
S31508002830700008604FF00070E1EE100A7047000063
S3150800284000F009F8002801D0FFF7C4FF0020FFF7C1
S31508002850D8FC00F002F80120704700F001B800002B
S315080028600746FFF731FB384600F002F8FBE70000A1
S3150800287080B5C046C046024A11001820ABBEFBE729
S315080028802600020038B504460D46284600F006F82C
S31508002890A84218BF0024204632BD00000149FFF7B0
S315080028A0E6BC00BF500000207047FEE7FEE7FEE7E3
S315080028B0FEE7704770477047704700000148804739
S315080028C00148004741260008CD280008C046C046F2
S315080028D0FFF7A8FFFFF7B4FF00000400040000009C
S315080028E004000000FFF7E0BFFFF7DFBFFFF7DEBF1A
S315080028F0FFF7DDBFFFF7DCBFFFF7DBBFFFF7DABF88
S31508002900FFF7D9BFFFF7D8BFFFF7FEBFFFF7FEBF38
S31508002910FFF7FEBFFFF7FEBFFFF7FEBFFFF7FEBFDD
S31508002920FFF7FEBFFFF7FEBFFFF7FEBFFFF7FEBFCD
S31508002930FFF7FEBFFFF7FEBFFFF7FEBFFFF7FEBFBD
S31508002940FFF7FEBFFFF7FEBFFFF7FEBFFFF7FEBFAD
S31508002950FFF7FEBFFFF7FEBFFFF7FEBFFFF7FEBF9D
S31508002960FFF7FEBFFFF7FEBFFFF7FEBFFFF7FEBF8D
S31508002970FFF7FEBFFFF7FEBFFFF7FEBFFFF7FEBF7D
S31508002980FFF7FEBFFFF7FEBFFFF7FEBFFFF7FEBF6D
S31508002990FFF7FEBFFFF7FEBFFFF7FEBFFFF7FEBF5D
S315080029A0FFF7FEBFFFF7FEBFFFF7FEBFFFF7FEBF4D
S315080029B0FFF7FEBFFFF7FEBFFFF7FEBFFFF7FEBF3D
S315080029C0FFF7FEBFFFF7FEBFFFF7FEBFFFF7FEBF2D
S315080029D0FFF7FEBFFFF7FEBFFFF7FEBFFFF7FEBF1D
S315080029E0FFF7FEBFFFF7FEBFFFF7FEBFFFF7FEBF0D
S315080029F0FFF7FEBFFFF7FEBFFFF7FEBFFFF7FEBFFD
S31508002A00FFF7FEBFFFF7FEBFFFF7FEBFFFF7FEBFEC
S31508002A10FFF7FEBFFFF7FEBFFFF7FEBFFFF7FEBFDC
S31508002A20FFF7FEBFFFF7FEBFFFF7FEBFFFF7FEBFCC
S31508002A30FFF7FEBFFFF7FEBFFFF7FEBFFFF7FEBFBC
S31508002A40FFF7FEBFFFF7FEBFFFF7FEBFFFF7FEBFAC
S31508002A500000000000000000000000000000000068
S31508002A60000000000000000000000000FFFFFFFF5C
S31508002A70FFFFFFFF0000000000000000000000004C
S31508002A800000000000000000000000000000000038
S31508002A900000000000000000FFFFFFFFFFFF00002E
S31508002AA002040101200100207001002020010020FD
S31508002AB020010020200100208D0000207400002045
S31508002AC000000000000000000000000000000000F8
S31508002AD000000000000000000000000000000000E8
S31508002AE000000000010203040102030406070809A6
S31108002AF0004800400008024000080240B0
S705080028CDFD
